:1014A1007580FFC2B5D2B6D2B4AF80C2B4EF20E727
:0114B100F644
:0114B2002217
:1014B300AE071214A1C2B5C2B68E80D2B4C2B42292
:1014C300AE071214A1D2B5C2B68E80D2B4C2B42272
:051540007F010214B35D
:051545007F0F0214B34A
:05154A007F0C0214B348
:0C14FE00ED60034307404307800214B375
:0A151600AC031214FEAF040214C36C
:1013A4008B0C8A0D890E1214FEAB0CAA0DA90E1219
:1013B40009EA6013050EE50E7002050D14F9120911
:0813C400EAFF1214C380E222CB
:10148D007F381214B37F0C1214B37F061214B37F7E
:04149D00010214B381
:10114D00C103C104011B0002170000011900011A9F
:01115D000091
:1010FE00D2AF1214771214E212148D12152030038F
:10110E00FDC2031210AA7F01120D2C7F01120EBA1E
:10111E0012122130041AC204121444E51B70081274
:10112E0010AAE4FF120D2CE51B64037003120E448B
:0F113E003003DDE51B70D9C203FF120EBA80D15A
:020EBA008F099E
:100EBC007B007A00790A12130D121477AE0AE50B37
:100ECC007804CEA2E713CE13D8F8F50B8E0AB5181A
:100EDC0009E517B50A04E5096040AE0AAF0B7C00C2
:100EEC007D0A120A64EF24307809F2AE0AAF0B7C4B
:100EFC00007D0A120A64ED2430780AF2087427F295
:100F0C00087443F2E408F27BFE7A0079097D017FD4
:0A0F1C000C1213A4850A17850B18A8
:010F260022A8
:0E14E200758901758CEEE4F58AD2A9D28C22B0
:03000B00020F9150
:100F9100C0E0C0F0C083C082C0D075D000C000C026
:0D0FA10001C002C003C004C005C006C007A7
:100FAE00758CEE758A00051AC3E51A942874809420
:100FBE00804016751A00D2040519E519940574803F
:0C0FCE0094804005751900D203120F2713
:100FDA00D007D006D005D004D003D002D001D0006B
:0B0FEA00D0D0D082D083D0F0D0E03215
:1005490004AE530A57485526BD0D26500D9544460D
:10055900AAB9056A4D09AD4224AEB604AE4A6A4D40
:10056900BE0A4D520D25465D52BA0B544E0D6A43D3
:10057900296D37095B4B749BC10497540A4B485B3F
:1005890025BC06A55006D4454ADAB802B64D095726
:10059900422497B704974A664B3E0D4A510EA54629
:1005A90056D4BA05AD4E02B644393738092E4B7CBC
:1005B90096BF0C95530D4A486DA53B0B554F056ADF
:1005C900454AADB9025D4D092D422C95B60A954AA9
:1005D9007B4ABD06CA510B5546555ABB04DA4E0A29
:1005E9005B43352BB8052B4C8A953F0E955206AACD
:1005F900487AD53C0AB54F04B6454A57390A574D8A
:100609000526423E93350D954975AABE056A5109DD
:100619006D4654AEBB04AD4F0A4D434D26B70D256B
:100629004B8D52BF0B54520B6A47696D3C095B50A5
:10063900049B454A4BB90A4B4DAB25C206A5540646
:10064900D4496ADA3D0AB6510937465497BB04972B
:100659004F064B4436A5370EA54A86B2BF05AC53A3
:100669000AB6475936BC092E500C96454D4AB80D65
:100679004A4C0DA54125AAB6056A497AADBD025D68
:1006890052092D475C95BA0A954E0B4A434B55378B
:100699000AD54A955ABF04BA530A5B48652BBC056B
:1006A9002B500A9345474AB906AA4C0AD54124DA80
:1006B900B604B64A69573D0A4E510D26465E933A2D
:1006C9000D534D05AA4336B537096D4BB4AEBF047A
:1006D900AD530A4D486D25BC0D254F0D52445DAAF9
:1006E900380B5A4C056D4124ADB6049B4A7A4BBE72
:1006F9000A4B510AA5465B52BA06D24E0ADA42356E
:100709005B3709374B8497C1049753064B4866A555
:100719003C0EA54F06B2444AB6380AAE4C092E42E1
:100729003C97350C96497D4ABD0D4A510DA5455555
:10073900AABA056A4E0A6D43452EB7052D4B8A950F
:10074900BF0A95530B4A476B553B0AD54F055A4586
:100759004A5D380A5B4C052B423A93B606934977B2
:1007690029BD06AA510AD54654DABA04B64E0A5723
:10077900434527380D264A8E933E0D52520DAA47FE
:1007890066B53B056D4F04AE454A4EB90A4D4C0D51
:1007990015412D92B5001F3B5A7897B5D4F3011135
:0407A9000130014ECC
:060B3900AD11AC10AF0D80
:100B3F00EF14B40D004003020C82900B5775F003B5
:100B4F00A4C58325F0C58373020B7E020B92020BA3
:100B5F00A6020BBA020BCE020BE2020BF6020C0A34
:100B6F00020C1E020C32020C46020C5A020C6E745E
:100B7F00492DF58274053CF583E49354087002C344
:100B8F0022D32274492DF58274053CF583E49354E6
:100B9F00047002C322D32274492DF58274053CF5EB
:100BAF0083E49354027002C322D32274492DF58239
:100BBF0074053CF583E49354017002C322D322746D
:100BCF004A2DF58274053CF583E49354807002C37B
:100BDF0022D322744A2DF58274053CF583E4935495
:100BEF00407002C322D322744A2DF58274053CF55E
:100BFF0083E49354207002C322D322744A2DF582CA
:100C0F0074053CF583E49354107002C322D322740D
:100C1F004A2DF58274053CF583E49354087002C3A2
:100C2F0022D322744A2DF58274053CF583E4935444
:100C3F00047002C322D322744A2DF58274053CF549
:100C4F0083E49354027002C322D322744A2DF58297
:100C5F0074053CF583E49354017002C322D32274CC
:100C6F004B2DF58274053CF583E49354807002C3D9
:040C7F0022D322D387
:010C8300224E
:1007AD00E509C4540FFBE509540FFAEB75F00AA4E3
:1007BD002AF509E50AC4540FFBE50A540FFAEB7547
:1007CD00F00AA42AF50AE50BC4540FFBE50B540FF0
:1007DD00FAEB75F00AA42AF50BE50920000724634E
:1007ED00FFE433800624FFFFE434FFFE7C007D032D
:1007FD00120A528E108F11744B2511F58274053526
:10080D0010F583E493FE5460FB7805FF0880010327
:10081D00D8FDFBEE541FFAEB64017006EA14F50CDB
:10082D008005EA241EF50CC3E50A940A74809480B1
:10083D00E50A500B90079D93250BFFE4338015259A
:10084D00E02493F582E43407F583740193250BFFBF
:10085D00E4933400CF24FFF50FEF34FFF50ED3E50D
:10086D000A940274809480400EE5095403700805C3
:10087D000FE50F7002050EAF0C7E00C3E50F9FE56F
:10088D000E9E4079E50F9FF50FE50E9EF50E750A4C
:10089D0001750D01120B399201C2022001047B1D5D
:1008AD0080027B1E74492511F58274053510F58380
:1008BD00E49354F0FA7804FF08800103D8FDFAEBB5
:1008CD00FF7E00C3E50F9FE50E9E402CE50F9FF5C3
:1008DD000FE50E9EF50E050DE50AB50209B20220D3
:1008ED000206050A8002050A120B39920120010445
:1008FD007B1D80CB7B1E80C7E50F02098FC3E50CE6
:10090D00950FF50CE5097007750963D20080021586
:10091D000974FD2511F51174FF3510F510750A0CCC
:10092D00FE74492511F58274053EF583E49354F068
:10093D00FA7804FF08800103D8FDFA7005750D0CD7
:10094D008003750D0DC202120B3992012001047B3B
:10095D001D80027B1EE50CD39B4023E50C9BF50C03
:10096D00150D200202150AE50AB50202B202120B9C
:10097D003992012001047B1D80DB7B1E80D7C3EBE8
:10098D00950C04F50BE50975F00A84FB7804FF0856
:10099D00800123D8FDFBE50975F00A84AAF0EB4A26
:1009AD00F51CE50A75F00A84FB7804FF0880012325
:1009BD00D8FDFBE50A75F00A84AAF0EB4AF51DE5B2
:1009CD000B75F00A84FB7804FF08800123D8FDFB2A
:0C09DD00E50B75F00A84AAF0EB4AF51E49
:0109E90022EB
:080003002017080123595002E7
:10142800E4FEEEC3940874809480500FC290EF13CA
:0B1438009291D290EFC313FF0E80E7EB
:011443002286
:1013EC00E4FEEEC39408748094805011C290EFC355
:0D13FC0013FF309103430780D2900E80E56F
:0114090022C0
:0F14D300C292D292121428AF05121428C292228C
:07153200E4FD7F8E0214D3DB
:0C150A007D807F8E1214D3C292C290220A
:06129D008B118A12891377
:1012A300121532C292C290D2927FBE121428E4FD6C
:1012B300EDC39408748094805015AB11AA12A9133E
:1012C3008D82758300120A03FF1214280D80E10238
:0212D300150AFA
:0612D5008B148A15891636
:1012DB00121532C292C290D2927FBF121428E4FD33
:1012EB00EDC394087480948050151213ECAB14AAC0
:1012FB0015A9168D82758300EF120A300D80E1025D
:02130B00150AC1
:061053008B098A0A890BDB
:101059007B007A00790C1212D5E42512FFE43420C2
:10106900AB09AA0AA90B8FF0120AC5AB09AA0AA9EA
:101079000B900002E510120A30900003E50F120AE6
:1010890030900004E50E120A30900005E50D120AB1
:1010990030900006E50C120A30900007E511020AAB
:0110A9003016
:1011E000E4F510120A9AF50F900007120A03F50EA3
:1011F000900002120A03F50D900003120A03F50C89
:10120000900004120A03F50B900005120A03F50A78
:10121000900006120A03F5097B007A007909021290
:011220009D30
:091520007BFF7A0079030211E05F
:07153900AE071FEE70FA225D
:1013CC00C2AFD2A200C2A27F4B121539D2A27F0BA0
:0F13DC00121539A2A2920130A2FD00D2AFA201D8
:0113EB0022DF
:02137B00AD07BC
:10137D00C2AFE4FBEBC39408748094805016C2A2F4
:10138D0000ED1392A27F0A121539D2A200EDC313FC
:06139D00FD0B80E0D2AF61
:0113A3002227
:10134500C2AFE4FCECC39408748094805023C2A21D
:1013550000D2A200A2A2E433FB7F0A121539D2A261
:1013650000EBC43333335480FFEDC3134FFD0C80C2
:05137500D3D2AFAF056B
:01137A002250
:101477001213CC920020000A7FCC12137B7F4412F8
:05148700137BA200B37D
:01148C00223D
:06130D008B0C8A0D890E15
:101313001213CC92002000267FCC12137B7FBE12C7
:10132300137B121345AA07121345EFFE7C00E42A30
:10133300FFEC3EAB0CAA0DA90E8FF0120AC5A2005A
:01134300B3F6
:011344002286
:04154F000D26281B22
:10115E008404010101018400010101010141000427
:05116E0042FFFFFFFF3E
:10122100E4F508C3E5089404748094805030740494
:101231002508F8E2FF74002508F8E2FE6F601BEE56
:10124100600AE50890154F93FF12140A74042508EB
:0E125100F8E2FF74002508F8EFF2050880C5EA
:01125F00226C
:100F2700E54225E0FFA2B0E4334FF542E54325E073
:100F3700FFA2B1E4334FF543E54425E0FFA2B2E455
:100F4700334FF544E54525E0FFA2B3E4334FF545BC
:100F57000541E54164047031F541FFEFC394047422
:100F6700809480502474422FF8E6540FFD7C007063
:100F77000874042FF8E4F2800DED640F4C700774C9
:090F8700042FF87401F20F80D26E
:010F9000223E
:09152900300003C2A322D2A32268
:1012600020202020004D6F6E2000547565730057BC
:1012700065642000546875720046726920005361ED
:1012800074200053756E20004F4E20004F464600DC
:0D1290004C756E617200416C61726D200042
:10117300012800C106012206012330102912601242
:1011830065126A126F12741279127E12830424128A
:0611930088128C0121000E
:0D14F000EFC4540F53070F75F00AA42FFF2F
:0114FD0022CC
:04145F007808E2FF28
:10146300EF75F00A84FEEF75F00A84AFF0EEC45412
:03147300F02FFF58
:011476002253
:1010AA007B007A007939121053E53DC4540F24307D
:1010BA007809F2E53D540F243008F208743AF2E553
:1010CA003EC4540F243008F2E53E540F243008F28F
:1010DA0008743AF2E53FC4540F243008F2E53F544D
:1010EA000F243008F2E408F27BFE7A0079097D01C8
:0410FA00FF0213A43A
:100D2C00E521B53C06EF7003020DB7E539C4540F4D
:100D3C0024307809F2E539540F243008F2E539C42F
:100D4C00F854F0C8E53AC4540F48540F2430780BCB
:100D5C00F2E53A540F243008F208742DF2E53BC446
:100D6C00540F243008F2E53B540F243008F2087479
:100D7C002DF2E53CC4540F243008F2E53C540F240A
:100D8C003008F2E408F27BFE7A007909FDFF1213B9
:100D9C00A4E54025E02429F8E6FE08E6AA06F97B3E
:0B0DAC00FFE4FD7F0C1213A4853C2126
:010DB7002219
:100E44007B007A007939121053C200853A09853B38
:100E54000A853C0B1207AD78097432F2087430F23B
:100E6400E51CC4540F243008F2E51C540F24300848
:100E7400F208742DF2E51DC4540F243008F2E51D68
:100E8400540F243008F208742DF2E51EC4540F24C4
:100E94003008F2E51E540F243008F2E408F27BFF18
:100EA4007A127990FDFF1213A47BFE7A007909E48B
:060EB400FD7F060213A4FD
:100FF500E522C4540F24307809F2E522540F243039
:1010050008F208743AF2E523C4540F243008F2E5D7
:1010150023540F243008F2E408F27BFF7A12799604
:101025007D01FF1213A4A206E43325E0FF74242FEB
:10103500F8E6FE08E6AA06F97BFF7D017F0D12138F
:0E104500A47BFE7A0079097D017F060213A4C8
:10144400E53DB52210E53EB5230B200604D200800D
:0B14540006C2008002C200121529220F
:100C8400E51B6401704FE52814601514601B1460A3
:100C94002114602714602D240570327528018058B2
:100CA4007528027D017F0480537528037D017F012F
:100CB400804A752804E4FD7F0C8041752805E4FD15
:100CC4007F098038752806E4FD7F06802FE4F52827
:100CD400FD7F038027E51B64027024E52814600C63
:100CE4000470127528017D017F0D80107528027D26
:100CF400017F0A8007E4F5287D017F070214FEE5E1
:100D04001B700C751B03121540120E44020FF5E5FF
:100D14001B64037012F51B1215401210AA7F0112F6
:080D24000D2C7F01120EBA2212
:10119A00E51B7005751B018009E51B6403700B755F
:1011AA001B02F528120C84021545E51B6401700C1C
:1011BA00F51BFB7A0079391211E08006E4F51B125F
:1011CA000FF512154A1215401210AA7F01120D2CA2
:0611DA007F01120EBA2293
:10000E00E51B64016003020202E528B40700400309
:10001E000202C4900028F82828730201B302003DA2
:10002E000200710200B50200F902012902016EAF51
:10003E003F1214F07808EFF2C3943B748094805012
:10004E0005E204F28004E47808F212145F8F3FE5B3
:10005E003FC4540F2430FB7D017F06121516E53F79
:10006E000202B1AF3E1214F07808EFF2C3943B7463
:10007E008094805005E204F28004E47808F21214B1
:10008E005F8F3EE53EC4540F2430FB7D017F03128B
:10009E001516E53E540F2430FB7D017F0412151614
:1000AE007D017F040202C1AF3D1214F07808EFF219
:1000BE00C39417748094805005E204F28004E478AF
:1000CE0008F212145F8F3DE53DC4540F2430FB7DC2
:1000DE0001E4FF121516E53D540F2430FB7D017F20
:1000EE00011215167D017F010202C1C3E54094077E
:1000FE0074809480500405408003754001E54025CE
:10010E00E02429F8E6FE08E6AA06F97BFFE4FD7F67
:10011E000C1213A4E4FD7F0C0202C1AF3C1214F0CA
:10012E007808EFF2C3941F748094805005E204F2B5
:10013E00800578087401F212145F8F3CE53CC454BC
:10014E000F2430FBE4FD7F08121516E53C540F24F6
:10015E0030FBE4FD7F09121516E4FD7F090202C192
:10016E00AF3B1214F07808EFF2C3940C74809480B5
:10017E005005E204F2800578087401F212145F8FC4
:10018E003BE53BC4540F2430FBE4FD7F05121516EE
:10019E00E53B540F2430FBE4FD7F06121516E4FDFB
:1001AE007F060202C1AF3A1214F07808EFF2C39440
:1001BE0063748094805005E204F28004E47808F2BF
:1001CE0012145F7539008F3AE539C4F854F0C8E55A
:1001DE003AC4540F482430FBE4FD7F02121516E595
:1001EE003A540F2430FBE4FD7F03121516E4FD7F15
:1001FE00030202C1E51B640260030202C4E528602B
:10020E007124FE602A0460030202C4B206A206E450
:10021E003325E0FF74242FF8E6FE08E6AA06F97BE4
:10022E00FF7D017F0D1213A47D017F0D0202C1AF70
:10023E00231214F07808EFF2C3943B74809480502C
:10024E0005E204F28004E47808F212145F8F23E5CD
:10025E0023C4540F2430FB7D017F09121516E523AC
:10026E00540F2430FB7D017F0A1215167D017F0A83
:10027E008041AF221214F07808EFF2C39417748005
:10028E0094805005E204F28004E47808F212145FC0
:10029E008F22E522C4540F2430FB7D017F061215F8
:1002AE0016E522540F2430FB7D017F071215167DB3
:0702BE00017F071214FE226C
:1002C500E51B64016003020492E528B407004003BE
:1002D5000205489002DFF82828730204490202F457
:1002E50002032202036002039E0203C9020409AF4E
:1002F5003F1214F07808EFF26005E214F2800578F9
:1003050008743BF212145F8F3FE53FC4540F24304D
:10031500FB7D017F06121516E53F020535AF3E123E
:1003250014F07808EFF26005E214F280057808749D
:100335003BF212145F8F3EE53EC4540F2430FB7D23
:10034500017F03121516E53E540F2430FB7D017F16
:10035500041215167D017F04020545AF3D1214F008
:100365007808EFF26005E214F2800578087417F258
:1003750012145F8F3DE53DC4540F2430FB7D01E42D
:10038500FF121516E53D540F2430FB7D017F011248
:1003950015167D017F01020545E5406401600415E0
:1003A500408003754007E54025E02429F8E6FE086E
:1003B500E6AA06F97BFFE4FD7F0C1213A4E4FD7F9A
:1003C5000C020545AF3C1214F07808EFF2640160A9
:1003D50005E214F280057808741FF212145F8F3C51
:1003E500E53CC4540F2430FBE4FD7F08121516E5E7
:1003F5003C540F2430FBE4FD7F09121516E4FD7F04
:1004050009020545AF3B1214F07808EFF26401606C
:1004150005E214F280057808740CF212145F8F3B24
:10042500E53BC4540F2430FBE4FD7F05121516E5AA
:100435003B540F2430FBE4FD7F06121516E4FD7FC7
:1004450006020545AF3A1214F07808EFF26005E2AE
:1004550014F2800578087463F212145F7539008F01
:100465003AE539C4F854F0C8E53AC4540F48243085
:10047500FBE4FD7F02121516E53A540F2430FBE428
:10048500FD7F03121516E4FD7F03020545E51B6498
:10049500026003020548E528606B24FE602A0460BB
:1004A50003020548B206A206E43325E0FF74242FB3
:1004B500F8E6FE08E6AA06F97BFF7D017F0D12131B
:1004C500A47D017F0D020545AF231214F07808EFD6
:1004D500F26005E214F280057808743BF212145FAD
:1004E5008F23E523C4540F2430FB7D017F091215AA
:1004F50016E523540F2430FB7D017F0A1215167D66
:10050500017F0A803BAF221214F07808EFF26005F4
:10051500E214F2800578087417F212145F8F22E551
:1005250022C4540F2430FB7D017F06121516E522E7
:10053500540F2430FB7D017F071215167D017F07BF
:040545001214FE226C
:10140A00EF24E5601524F5600B24FE600A241B70A6
:0E141A000C020C8402000E0202C512119A226E
:03000000020DB836
:0C0DB800787FE4F6D8FD758145020DFF40
:1009EA00BB010689828A83E0225002E722BBFE020B
:0909FA00E32289828A83E493223E
:100A0300BB010CE58229F582E5833AF583E02250A8
:100A130006E92582F8E622BBFE06E92582F8E222F2
:0D0A2300E58229F582E5833AF583E493220C
:100A3000F8BB010DE58229F582E5833AF583E8F0FC
:100A4000225006E92582C8F622BBFE05E92582C8A8
:020A5000F22290
:100A5200EF8DF0A4A8F0CF8CF0A428CE8DF0A42EB8
:020A6200FE2272
:100A6400C2D5EC30E709B2D5E4C39DFDE49CFCEEAD
:100A740030E715B2D5E4C39FFFE49EFE120AE4C337
:100A8400E49DFDE49CFC8003120AE430D507C3E432
:060A94009FFFE49EFE221C
:100A9A00BB010A89828A83E0F5F0A3E02250068727
:100AAA00F009E71922BBFE07E3F5F009E3192289E9
:0B0ABA00828A83E493F5F0740193221C
:100AC500BB010A89828A83F0E5F0A3F0225006F77C
:0F0AD50009A7F01922BBFE06F3E5F009F3192279
:100DC4000210FEE493A3F8E493A34003F68001F237
:100DD40008DFF48029E493A3F85407240CC8C33330
:100DE400C4540F4420C8834004F456800146F6DFFF
:100DF400E4800B010204081020408090114DE47E31
:100E0400019360BCA3FF543F30E509541FFEE493F3
:100E1400A360010ECF54C025E060A840B8E493A3BA
:100E2400FAE493A3F8E493A3C8C582C8CAC583CAE5
:100E3400F0A3C8C582C8CAC583CADFE9DEE780BE9D
:011199000055
:100AE400BC000BBE0029EF8DF084FFADF022E4CCF6
:100AF400F875F008EF2FFFEE33FEEC33FCEE9DECBF
:100B0400984005FCEE9DFE0FD5F0E9E4CEFD22ED04
:100B1400F8F5F0EE8420D21CFEADF075F008EF2F4E
:100B2400FFED33FD4007985006D5F0F222C398FD3F
:050B34000FD5F0EA22DC
:00000001FF
